{
  "_format": "hh-sol-artifact-1",
  "contractName": "Election",
  "sourceName": "contracts/Election.sol",
  "abi": [
    {
      "inputs": [
        {
          "internalType": "string[]",
          "name": "_candidateNames",
          "type": "string[]"
        }
      ],
      "stateMutability": "nonpayable",
      "type": "constructor"
    },
    {
      "inputs": [
        {
          "internalType": "uint256",
          "name": "",
          "type": "uint256"
        }
      ],
      "name": "candidates",
      "outputs": [
        {
          "internalType": "string",
          "name": "name",
          "type": "string"
        },
        {
          "internalType": "uint256",
          "name": "score",
          "type": "uint256"
        }
      ],
      "stateMutability": "view",
      "type": "function"
    },
    {
      "inputs": [
        {
          "internalType": "uint256",
          "name": "_candidate1",
          "type": "uint256"
        },
        {
          "internalType": "uint256",
          "name": "_candidate2",
          "type": "uint256"
        },
        {
          "internalType": "uint256",
          "name": "_candidate3",
          "type": "uint256"
        }
      ],
      "name": "castVote",
      "outputs": [],
      "stateMutability": "nonpayable",
      "type": "function"
    },
    {
      "inputs": [],
      "name": "currentStanding",
      "outputs": [
        {
          "components": [
            {
              "internalType": "string",
              "name": "name",
              "type": "string"
            },
            {
              "internalType": "uint256",
              "name": "score",
              "type": "uint256"
            }
          ],
          "internalType": "struct Election.Candidate[]",
          "name": "_candidates",
          "type": "tuple[]"
        }
      ],
      "stateMutability": "view",
      "type": "function"
    },
    {
      "inputs": [],
      "name": "leader",
      "outputs": [
        {
          "internalType": "address",
          "name": "",
          "type": "address"
        }
      ],
      "stateMutability": "view",
      "type": "function"
    },
    {
      "inputs": [
        {
          "internalType": "address",
          "name": "voter",
          "type": "address"
        }
      ],
      "name": "registerVoter",
      "outputs": [],
      "stateMutability": "nonpayable",
      "type": "function"
    },
    {
      "inputs": [
        {
          "internalType": "address",
          "name": "",
          "type": "address"
        }
      ],
      "name": "voters",
      "outputs": [
        {
          "internalType": "bool",
          "name": "registered",
          "type": "bool"
        },
        {
          "internalType": "bool",
          "name": "voted",
          "type": "bool"
        },
        {
          "internalType": "uint256",
          "name": "vote",
          "type": "uint256"
        }
      ],
      "stateMutability": "view",
      "type": "function"
    }
  ],
  "bytecode": "0x60806040523480156200001157600080fd5b506040516200107738038062001077833981810160405281019062000037919062000314565b336000806101000a81548173ffffffffffffffffffffffffffffffffffffffff021916908373ffffffffffffffffffffffffffffffffffffffff16021790555060018060008060009054906101000a900473ffffffffffffffffffffffffffffffffffffffff1673ffffffffffffffffffffffffffffffffffffffff1673ffffffffffffffffffffffffffffffffffffffff16815260200190815260200160002060000160006101000a81548160ff02191690831515021790555060005b81518110156200018d57600260405180604001604052808484815181106200011957fe5b602002602001015181526020016000815250908060018154018082558091505060019003906000526020600020906002020160009091909190915060008201518160000190805190602001906200017292919062000195565b506020820151816001015550508080600101915050620000f5565b505062000427565b828054600181600116156101000203166002900490600052602060002090601f016020900481019282601f10620001d857805160ff191683800117855562000209565b8280016001018555821562000209579182015b8281111562000208578251825591602001919060010190620001eb565b5b5090506200021891906200021c565b5090565b5b80821115620002375760008160009055506001016200021d565b5090565b600082601f8301126200024d57600080fd5b8151620002646200025e826200038d565b62000359565b9150818183526020840193506020810190508360005b83811015620002ae5781518601620002938882620002b8565b8452602084019350602083019250506001810190506200027a565b5050505092915050565b600082601f830112620002ca57600080fd5b8151620002e1620002db82620003bc565b62000359565b91508082526020830160208301858383011115620002fe57600080fd5b6200030b838284620003ef565b50505092915050565b6000602082840312156200032757600080fd5b600082015167ffffffffffffffff8111156200034257600080fd5b62000350848285016200023b565b91505092915050565b6000604051905081810181811067ffffffffffffffff8211171562000383576200038262000425565b5b8060405250919050565b600067ffffffffffffffff821115620003ab57620003aa62000425565b5b602082029050602081019050919050565b600067ffffffffffffffff821115620003da57620003d962000425565b5b601f19601f8301169050602081019050919050565b60005b838110156200040f578082015181840152602081019050620003f2565b838111156200041f576000848401525b50505050565bfe5b610c4080620004376000396000f3fe608060405234801561001057600080fd5b50600436106100625760003560e01c8063316e539e146100675780633477ee2e1461008557806338db6dd3146100b657806340eedabb146100d25780635be5e3ec146100f0578063a3ec138d1461010c575b600080fd5b61006f61013e565b60405161007c91906109e1565b60405180910390f35b61009f600480360381019061009a91906106da565b610249565b6040516100ad929190610a3a565b60405180910390f35b6100d060048036038101906100cb91906106b1565b610312565b005b6100da61048f565b6040516100e791906109c6565b60405180910390f35b61010a60048036038101906101059190610703565b6104b3565b005b610126600480360381019061012191906106b1565b610643565b60405161013593929190610a03565b60405180910390f35b60606002805480602002602001604051908101604052809291908181526020016000905b828210156102405783829060005260206000209060020201604051806040016040529081600082018054600181600116156101000203166002900480601f01602080910402602001604051908101604052809291908181526020018280546001816001161561010002031660029004801561021e5780601f106101f35761010080835404028352916020019161021e565b820191906000526020600020905b81548152906001019060200180831161020157829003601f168201915b5050505050815260200160018201548152505081526020019060010190610162565b50505050905090565b6002818154811061025657fe5b9060005260206000209060020201600091509050806000018054600181600116156101000203166002900480601f0160208091040260200160405190810160405280929190818152602001828054600181600116156101000203166002900480156103025780601f106102d757610100808354040283529160200191610302565b820191906000526020600020905b8154815290600101906020018083116102e557829003601f168201915b5050505050908060010154905082565b600160008273ffffffffffffffffffffffffffffffffffffffff1673ffffffffffffffffffffffffffffffffffffffff16815260200190815260200160002060000160019054906101000a900460ff16156103a2576040517f08c379a000000000000000000000000000000000000000000000000000000000815260040161039990610aca565b60405180910390fd5b600160008273ffffffffffffffffffffffffffffffffffffffff1673ffffffffffffffffffffffffffffffffffffffff16815260200190815260200160002060000160009054906101000a900460ff1615610432576040517f08c379a000000000000000000000000000000000000000000000000000000000815260040161042990610aaa565b60405180910390fd5b60018060008373ffffffffffffffffffffffffffffffffffffffff1673ffffffffffffffffffffffffffffffffffffffff16815260200190815260200160002060000160006101000a81548160ff02191690831515021790555050565b60008054906101000a900473ffffffffffffffffffffffffffffffffffffffff1681565b6000600160003373ffffffffffffffffffffffffffffffffffffffff1673ffffffffffffffffffffffffffffffffffffffff16815260200190815260200160002090508060000160009054906101000a900460ff16610547576040517f08c379a000000000000000000000000000000000000000000000000000000000815260040161053e90610a8a565b60405180910390fd5b8060000160019054906101000a900460ff1615610599576040517f08c379a000000000000000000000000000000000000000000000000000000000815260040161059090610a6a565b60405180910390fd5b6005600285815481106105a857fe5b9060005260206000209060020201600101600082825401925050819055506003600284815481106105d557fe5b90600052602060002090600202016001016000828254019250508190555060016002838154811061060257fe5b90600052602060002090600202016001016000828254019250508190555060018160000160016101000a81548160ff02191690831515021790555050505050565b60016020528060005260406000206000915090508060000160009054906101000a900460ff16908060000160019054906101000a900460ff16908060010154905083565b60008135905061069681610bdc565b92915050565b6000813590506106ab81610bf3565b92915050565b6000602082840312156106c357600080fd5b60006106d184828501610687565b91505092915050565b6000602082840312156106ec57600080fd5b60006106fa8482850161069c565b91505092915050565b60008060006060848603121561071857600080fd5b60006107268682870161069c565b93505060206107378682870161069c565b92505060406107488682870161069c565b9150509250925092565b600061075e838361096b565b905092915050565b61076f81610b50565b82525050565b600061078082610afa565b61078a8185610b1d565b93508360208202850161079c85610aea565b8060005b858110156107d857848403895281516107b98582610752565b94506107c483610b10565b925060208a019950506001810190506107a0565b50829750879550505050505092915050565b6107f381610b62565b82525050565b600061080482610b05565b61080e8185610b2e565b935061081e818560208601610b98565b61082781610bcb565b840191505092915050565b600061083d82610b05565b6108478185610b3f565b9350610857818560208601610b98565b61086081610bcb565b840191505092915050565b6000610878600e83610b3f565b91507f416c726561647920766f7465642e0000000000000000000000000000000000006000830152602082019050919050565b60006108b8601883610b3f565b91507f566f746572206973206e6f7420726567697374657265642e00000000000000006000830152602082019050919050565b60006108f8601c83610b3f565b91507f566f74657220697320616c726561647920726567697374657265642e000000006000830152602082019050919050565b6000610938601883610b3f565b91507f54686520766f74657220616c726561647920766f7465642e00000000000000006000830152602082019050919050565b6000604083016000830151848203600086015261098882826107f9565b915050602083015161099d60208601826109a8565b508091505092915050565b6109b181610b8e565b82525050565b6109c081610b8e565b82525050565b60006020820190506109db6000830184610766565b92915050565b600060208201905081810360008301526109fb8184610775565b905092915050565b6000606082019050610a1860008301866107ea565b610a2560208301856107ea565b610a3260408301846109b7565b949350505050565b60006040820190508181036000830152610a548185610832565b9050610a6360208301846109b7565b9392505050565b60006020820190508181036000830152610a838161086b565b9050919050565b60006020820190508181036000830152610aa3816108ab565b9050919050565b60006020820190508181036000830152610ac3816108eb565b9050919050565b60006020820190508181036000830152610ae38161092b565b9050919050565b6000819050602082019050919050565b600081519050919050565b600081519050919050565b6000602082019050919050565b600082825260208201905092915050565b600082825260208201905092915050565b600082825260208201905092915050565b6000610b5b82610b6e565b9050919050565b60008115159050919050565b600073ffffffffffffffffffffffffffffffffffffffff82169050919050565b6000819050919050565b60005b83811015610bb6578082015181840152602081019050610b9b565b83811115610bc5576000848401525b50505050565b6000601f19601f8301169050919050565b610be581610b50565b8114610bf057600080fd5b50565b610bfc81610b8e565b8114610c0757600080fd5b5056fea2646970667358221220beaead3169a5b9e3d27a33b13df5274fdaf3acde1c1dd2a217ecc2ec27927a5f64736f6c63430007030033",
  "linkReferences": {},
  "deployedLinkReferences": {}
}